:100000000C943A000C9473020C9473020C947302D7
:100010000C9473020C9473020C9473020C9473028C
:100020000C9473020C9473020C9473020C9473027C
:100030000C9473020C9473020C9473020C9473026C
:100040000C9473020C9473020C9498010C94730238
:100050000C9468020C9462020C9473020C94730268
:100060000C9473020C947302010001468001460156
:10007000480004F411241FBECFEFD8E0DEBFCDBF8F
:10008000E8E6F0E040E017C0B591A59135912591E3
:10009000059107FD0CC095918591EF01F92FE82F8F
:1000A00005900D92A217B307D9F7FE0104C01D9267
:1000B000A217B307E1F7E437F40731F70E946400B1
:0800C0000C944E02F894FFCFEE
:1000C800CF93DF9300D000D000D0CDB7DEB7F8943F
:1000D80060E080E895E20E9443010E944302789420
:1000E8001A821982FE01339684E0DF011D928A95F7
:1000F800E9F780E00E94CD01AC019C013295229580
:100108002F7023273F702327A7E4B3E00E9434020F
:100118009695879596958795969587950F2EF0E3F2
:10012800FF2EF02DF80EF9829A013695279536950F
:10013800279536952795A5ECB0E20E943402FC017C
:10014800F295E295EF70EF27FF70EF279F01ADEC76
:10015800BCEC0E943402969587959695879596955E
:100168008795880F991F9C01220F331F220F331F79
:10017800820F931FE81BF90BE05DEA839A0136951D
:10018800279536952795ABE7B4E10E943402FC0128
:10019800F695E7959F01ADECBCEC0E94340296956C
:1001A80087959695879596958795880F991F9C01B1
:1001B800220F331F220F331F820F931FE81BF90BE7
:1001C800E05DEB839A010E943402FC01F695E79505
:1001D800F695E795F695E7959F010E943402969566
:1001E80087959695879596958795880F991F9C0171
:1001F800220F331F220F331F820F931F9F01281BCB
:10020800390BC901805D8C83EE0FFF1FCF01880F6A
:10021800991F880F991FE80FF91F4E1B5F0B405D50
:100228004D831E8200E010E004C00E9414020F5F9C
:100238001F4F0E946E02892BC1F70134110528F463
:100248000F5F1F4F01341105D9F7FF2059F08E01B8
:100258000E5F1F4F8F2D0E945902D801FD908D010E
:10026800F110F8CF8AE00E945902BFEFE9E6F8E101
:0E027800B150E040F040E1F700C000003ACF86
:100286009C01662319F1E0ECF0E0808182608083B6
:10029600C901A0E0B0E0880F991FAA1FBB1F880FF5
:1002A600991FAA1FBB1F9C01AD01220F331F441FBC
:1002B600551F60E074E284EF90E00E94F201215045
:1002C60031093093C5002093C40026C0E0ECF0E06D
:1002D60080818D7F8083C901A0E0B0E0880F991FDF
:1002E600AA1FBB1F880F991FAA1FBB1F9C01AD0128
:1002F600220F331F441F551F220F331F441F551F44
:1003060060E074E284EF90E00E94F201215031092E
:100316003093C5002093C400E1ECF0E08081886D45
:0A032600808386E08093C2000895F2
:100330001F921FB61F9211242F933F938F939F9369
:10034000EF93FF9380914201909143012091C60069
:10035000FC01E050FF4F2083209144013091450182
:100360002F5F3F4F30934501209344010196803425
:10037000910528F4909343018093420104C01092A8
:10038000430110924201FF91EF919F918F913F9114
:0A0390002F911F901FBE1F901895BB
:10039A0010924601EEE7F0E0908121E030E0082E6D
:1003AA0002C0220F331F0A94E2F7292B2083ECE7BD
:1003BA00F0E09081907F90839081892B8083EAE797
:1003CA00F0E0808180648083809146018823E1F394
:0A03DA008091780090917900089559
:1003E400A1E21A2EAA1BBB1BFD010DC0AA1FBB1F35
:1003F400EE1FFF1FA217B307E407F50720F0A21BA7
:10040400B30BE40BF50B661F771F881F991F1A9413
:1004140069F760957095809590959B01AC01BD013D
:04042400CF01089567
:100428002091400130914101F901E050FF4F808156
:100438002F5F3F4F30934101209340014091440189
:100448005091450141505109509345014093440151
:100458002034310520F01092410110924001089596
:10046800A29FB001B39FC001A39F700D811D1124ED
:0E047800911DB29F700D811D1124911D0895DC
:10048600ECE7F0E0808180648083EAE7F0E0808139
:060496008F6880830895C9
:10049C00EC010E9478020E947702CE010E94790240
:0604AC00CE010E94750262
:1004B200909147019923E1F3109247018093C6007E
:0204C20008959B
:0C04C4008F9381E0809346018F91189582
:0C04D0008F9381E0809347018F91189575
:0A04DC0080914401909145010895BC
:0404E6000C94000072
:0404EA000E9462000A
:0204EE0008956F
:0204F00008956D
:0204F20008956B
:0104F4000106
:0104F5000105
:00000001FF
